:100000000C942A000C943F000C943F000C943F0089
:100010000C943F000C943F000C943F000C943F0064
:100020000C943F000C943F000C943F000C943F0054
:100030000C943F000C943F000C943F000C943F0044
:100040000C943F000C943F000C943F000C943F0034
:100050000C943F0011241FBECFE5D8E0DEBFCDBF1A
:1000600010E0A0E6B0E0EAEAF1E002C005900D92EF
:10007000AE36B107D9F70E94BB000C94D3000C94A4
:1000800000009BB39F70282F207F922B9BBB98B3BF
:10009000C39A33E03A95F1F7000098B3E3EFF1E04B
:1000A0003197F1F700C000002BB32F70F0E18F9F64
:1000B000C0011124822B8BBB88B3C39A000088B384
:1000C00083EF91E00197F1F700C0000008958FEFF2
:1000D0008ABB8FE087BBBA9A86E08A95F1F700C0A9
:1000E00083E30E94410082E30E94410088E20E9473
:1000F00041008EE00E94410086E00E94410081E0C4
:100100000E94410008959BB39F70282F207F922B5F
:100110009BBBC19AC39A33E03A95F1F7000098B3BC
:10012000E3EFF1E03197F1F700C000002BB32F703F
:10013000F0E18F9FC0011124822B8BBBC19AC39A1F
:1001400033E03A95F1F7000088B385ED96E001972A
:10015000F1F700C000000895CF93DF93EC01888190
:10016000882331F021960E94830089918111FBCF71
:10017000DF91CF9108950E94670081E80E944100BD
:1001800080E690E00E94AC0086E80E94410085E68F
:1001900090E00E94AC0084EC0E94410088E690E070
:0A01A0000E94AC00FFCFF894FFCFDF
:0E01AA00616D69740031370061686D61640039
:00000001FF
